:020000040000FA
:100000000A128A11E22FFF0000308A007F0882075F
:0E00100008280A128A11AF2E0A128A11A62E93
:100D060001340434700C83120313031C8813031874
:100D160088170800700C83120313031C08130318AA
:100D260008170800700C83120313031C881203189B
:100D360088160800831603130814881483120313F5
:100D46000810881008007008203E840083130008ED
:100D5600831203138600080083160317890183167E
:100D660003138601831203138601080083160313F7
:100D76008812081388138312031388120813881322
:100D8600080083120313080C0139F200F3017208FC
:100D9600F0007308F100CF2E080083120313080831
:100DA6000139F200F3017208F0007308F100DB2E3E
:100DB60008003F3406345B344F3466346D347D347A
:100DC60007347F346F3477347C3439345E34793485
:100DD60071347E088A007F0882000A128A11EC2686
:100DE6000A128A118000840A04087D060319003459
:100DF600FF0A0319FE0AF02E0E2FFF30F007031824
:100E0600F10AFF30F107C730F200092FF20B082F65
:100E16000C2F0D2F0E2F70087104031D132F142F86
:100E2600002F152F08007A080A128A1103200A12C9
:100E36008A11F901F701F801B72FB72F0130F70032
:100E46000030F800D32F0A128A11B9260A128A1125
:100E56000A128A119D260A128A110230F700003002
:100E6600F800D32F0A128A11D0260A128A117003AB
:100E76007104031D3F2F402FD32F0330F70000309E
:100E8600F800D32FD32F0130F0000030F1000A1202
:100E96008A1185260A128A110130F0000030F1000D
:100EA6000A128A118D260A128A11B830F5000B3003
:100EB600F6000430F7000030F800D32F0130F000C0
:100EC6000030F1000A128A11FF260A128A11FF3039
:100ED600F5070318F60AFF30F6077608803AFF0092
:100EE60080307F02031D792F0130750203187C2F95
:100EF6007D2FD32F0530F7000030F800D32FD32FE6
:100F06000030F000F1000A128A118D260A128A11A9
:100F16000130F0000030F1000A128A1195260A12FB
:100F26008A110130F4007408F9077908803A713E95
:100F3600031C9E2F9F2FA12FF901A12F0130F7002F
:100F46000030F800D32F0A128A11C4260A128A1119
:100F560070037104031DB02FB12FD32F0130F7009A
:100F66000030F800D32FD32F7808003A0319BC2F8E
:100F7600D32F7708003A0319212F013A0319262F98
:100F8600033A0319352F013A0319462F073A031975
:100F9600612F013A0319832F033A0319A62FD32F82
:100FA6007908F4007408F0007B080A128A110320FD
:100FB6000A128A11B72FB72F0A128A110028831333
:100FC6003030FD000630FE00DC30FF0020308400AB
:100FD6000A128A11F0260A128A110A128A11832627
:100FE6000A128A11FA000A128A1184260A128A1132
:0A0FF600FB0083010A128A11162F76
:04400E00D4E0FFFFFC
:00000001FF
