:020000040000FA
:100000000A128A11E22FFF0000308A007F0882075F
:0E00100008280A128A11A02E0A128A11972EB1
:100CE80001340434700C83120313031C8813031893
:100CF80088170800700C83120313031C08130318C9
:100D080008170800700C83120313031C88120318B9
:100D18008816080083160313081488148312031313
:100D28000810881008007008203E8400831300080B
:100D3800831203138600080083160317890183169C
:100D48000313860183120313860108008316031315
:100D58008812081388138312031388120813881340
:100D6800080083120313080C0139F200F30172081A
:100D7800F0007308F100C02E08008312031308085E
:100D88000139F200F3017208F0007308F100CC2E6B
:100D980008003F3406345B344F3466346D347D3498
:100DA80007347F346F3477347C3439345E347934A3
:100DB80071347E088A007F0882000A128A11DD26B3
:100DC8000A128A118000840A04087D060319003477
:100DD800FF0A0319FE0AE12EFF2EFF30F007031861
:100DE800F10AFF30F107C730F200FA2EF20BF92EA4
:100DF800FD2EFE2EFF2E70087104031D042F052FF3
:100E0800F12E062F08007A080A128A1103200A1206
:100E18008A11F701F801F901B72FB72F0130F8004F
:100E28000030F900D32F0A128A11AA260A128A1151
:100E38000A128A118E260A128A110230F80000302E
:100E4800F900D32F0A128A11C1260A128A117003D7
:100E58007104031D302F312FD32F0330F8000030D9
:100E6800F900D32FD32F0130F0000030F1000A121F
:100E78008A1176260A128A110130F0000030F1003A
:100E88000A128A117E260A128A11B830F5000B3030
:100E9800F6000430F8000030F900D32F0130F000DC
:100EA8000030F1000A128A11F0260A128A11FF3066
:100EB800F5070318F60AFF30F6077608803AFF00B0
:100EC80080307F02031D6A2F0130750203186D2FD1
:100ED8006E2F732F0530F8000030F900732F0A12B7
:100EE8008A11B5260A128A1170037104031D7D2F19
:100EF8007E2FD32F0130F8000030F900D32FD32FE5
:100F08000030F000F1000A128A117E260A128A11B6
:100F18000130F0000030F1000A128A1186260A1208
:100F28008A110130F4007408F7070F307702031CA8
:100F38009E2F9F2FA12FF701A12F0630F800003018
:100F4800F900D32F0A128A11B5260A128A117003E2
:100F58007104031DB02FB12FD32F0130F8000030DA
:100F6800F900D32FD32F7908003A0319BC2FD32FB8
:100F78007808003A0319122F013A0319172F033A78
:100F88000319262F013A0319372F073A0319522F4D
:100F9800013A0319842F033A0319A62FD32F770890
:100FA800F4007408F0007B080A128A1103200A1260
:100FB8008A11B72FB72F0A128A11002883133030ED
:100FC800FD000630FE00CD30FF00203084000A12FC
:100FD8008A11E1260A128A110A128A1174260A1243
:100FE8008A11FA000A128A1175260A128A11FB0060
:080FF80083010A128A11072F80
:04400E00D4E0FFFFFC
:00000001FF
