:020000040000FA
:060000000A128A11FC2F18
:100DF400700C83120313031C88130318881708004C
:100E0400700C83120313031C08130318081708003B
:100E1400700C83120313031C88120318881608002D
:100E240083160313081488148312031308108810FC
:100E340008008316031388120813881383120313FC
:100E4400881208138813080083120313080C01394D
:100E5400F200F3017208F0007308F100312F08006A
:100E64008312031308080139F200F3017208F00039
:100E74007308F1003D2F08004D2FFF30F0070318D1
:100E8400F10AFF30F107C730F200482FF20B472F69
:100E94004B2F4C2F4D2F70087104031D522F532FCD
:100EA4003F2F542F0800F601F701DE2FDE2F01300B
:100EB400F6000030F700DE2F0A128A111B270A12EF
:100EC4008A110A128A1112270A128A110230F600B4
:100ED4000030F700DE2F0A128A1132270A128A1113
:100EE40070037104031D772F782FDE2F0330F60073
:100EF4000030F700DE2FDE2F0130F0000030F1006B
:100F04000A128A11FA260A128A110130F0000030FE
:100F1400F1000A128A1102270A128A11B830F40069
:100F24000B30F5000430F6000030F700DE2F0130FE
:100F3400F0000030F1000A128A113E270A128A11C9
:100F4400FF30F4070318F50AFF30F5077508803AF7
:100F5400FF0080307F02031DB12F0130740203189B
:100F6400B42FB52FDE2F0530F6000030F700DE2F4A
:100F7400DE2F0030F000F1000A128A1102270A1253
:100F84008A110130F0000030F1000A128A110A2798
:100F94000A128A110A128A1126270A128A11700368
:100FA4007104031DD62FD72FDE2F0130F600003039
:100FB400F700DE2FDE2FDE2F7708003A0319E32F28
:100FC400DE2F7608003A0319592F013A03195E2FD0
:100FD400033A03196D2F013A03197E2F073A0319B7
:100FE400992F013A0319BB2FDE2FDE2FDE2F0A12B1
:0C0FF4008A11002883010A128A11552F6F
:04400E00D4E0FFFFFC
:00000001FF
